:1000000001308A00D3290000FF00030E8301A10004
:100010000A08A0008A010408A2007708A300780853
:10002000A4007908A5007A08A600831383128C30F7
:100030008400801E1D288C1A2E2822088400230884
:10004000F7002408F8002508F9002608FA0020081F
:100050008A00210E8300FF0E7F0E09008A110A120A
:100060005E280A108A100A11820701340334023410
:10007000063404340C34083409340A108A100A1186
:100080008207093408340C3404340634023403344F
:100090000134353084008313000803195D280130D2
:1000A000F800F701F70B5228F80B51284A30F700F7
:1000B000F70B58285B28800B4F28080083168C12FA
:1000C00083128C1E61281A08A8002808443C031DCE
:1000D0008A28AA01A9010130AB00AC013210320814
:1000E00083168700831207102A08F9002908F800F0
:1000F000F90CF80CF90CF80CF90C78089B00F90CC9
:10010000790C3039F7001D08CF3977049D00643031
:10011000B50049202808413C031DB028AA01FA3047
:10012000A9000130AC00AB01321032088316870001
:10013000831207142A08F9002908F800F90CF80CB2
:10014000F90CF80CF90C78089B00F90C790C303993
:10015000F7001D08CF3977049D006430B5004920B1
:100160002B0B04292808573C031DDA280A30A9075D
:100170000318AA0AAA08031DC1282908EF3C03187E
:10018000C428AA01F030A9002A08F9002908F800BB
:10019000F90CF80CF90CF80CF90C78089B00F90C28
:1001A000790C3039F7001D08CF3977049D00643091
:1001B000B50049202808533C031D04290A30A90230
:1001C0000030031C0130AA02AA08031DEE282908EA
:1001D0000A3C031CEE28AA010A30A9002A08F900EB
:1001E0002908F800F90CF80CF90CF80CF90C78084F
:1001F0009B00F90C790C3039F7001D08CF397704D2
:100200009D006430B50049202C0B58292808533C28
:10021000031D2E290A30A9070318AA0AAA08031DDC
:1002200015292908EF3C03181829AA01F030A90064
:100230002A08F9002908F800F90CF80CF90CF80C58
:10024000F90C78089B00F90C790C3039F7001D087F
:10025000CF3977049D006430B50049202808573C09
:10026000031D58290A30A9020030031C0130AA02DC
:10027000AA08031D422929080A3C031C4229AA0195
:100280000A30A9002A08F9002908F800F90CF80C2E
:10029000F90CF80CF90C78089B00F90C790C303942
:1002A000F7001D08CF3977049D006430B500492060
:1002B00028085A3C031D7C29AA01A90132103208E2
:1002C00083168700831207102A08F9002908F8000E
:1002D000F90CF80CF90CF80CF90C78089B00F90CE7
:1002E000790C3039F7001D08CF3977049D00AB0138
:1002F000AC016430B50049202808483C031D922910
:1003000083168601831286010230B4009630B50050
:100310004920B40B86290130B000B1018316860153
:10032000831286012808463C031DA82983168601EE
:10033000831286010230B4009630B5004920B40B18
:100340009C290130B100B001831686018312860119
:100350002808543C031DB7290130AD022D08013C8B
:10036000031CB4290130AD000A30B500492028082B
:10037000473C031DC6290130AD072D08043C031876
:10038000C3290530AD000A30B50049202808583C83
:10039000031DCF29B001B101C830B50049208C122E
:1003A0008A110A121D28193083169900A630980068
:1003B0009030831298000630AD00B001B101FF30DB
:1003C000B20083161F149F141F159F1107309C0045
:1003D00083131F308305091283129412B21232085C
:1003E0008316870083123216320883168700831221
:1003F000B211320883168700013083129400003056
:100400008316940083129001F80006389200FD30A4
:10041000831692001F149F141F159F1183121F1023
:10042000F0309705B21032088316870083128710C8
:100430000C309D003210320883168700831207109B
:100440009B01A7018B1BA7178B136430B5004920B4
:10045000A71B8B17C0308B0483168C168312300BAE
:100460004D2AAE01AE012E08073C031C4D2A2E0872
:100470003120B30083168601831233088600A7015A
:100480008B1BA7178B132D08B5004920A71B8B17B3
:1004900083168C168312AE0A332A310B6B2AAF01F6
:1004A000AF012F08073C031C6B2A2F083D20B30027
:1004B00083168601831233088600A7018B1BA717BA
:1004C0008B132D08B5004920A71B8B1783168C169C
:0A04D0008312AF0A512A2C2A6300A0
:02400E00393F38
:00000001FF
;PIC16F877A
;CRC=DDDC  CREATED="18-Eki-18 02:10"
